{
  "_format": "hh-sol-artifact-1",
  "contractName": "TokenizedBallot",
  "sourceName": "contracts/TokenizedBallot.sol",
  "abi": [
    {
      "inputs": [
        {
          "internalType": "bytes32[]",
          "name": "proposalNames",
          "type": "bytes32[]"
        },
        {
          "internalType": "address",
          "name": "_tokenContractAddress",
          "type": "address"
        },
        {
          "internalType": "uint256",
          "name": "_targetBlockNumber",
          "type": "uint256"
        }
      ],
      "stateMutability": "nonpayable",
      "type": "constructor"
    },
    {
      "inputs": [
        {
          "internalType": "uint256",
          "name": "required",
          "type": "uint256"
        },
        {
          "internalType": "uint256",
          "name": "inControl",
          "type": "uint256"
        }
      ],
      "name": "NotEnoughVotingPower",
      "type": "error"
    },
    {
      "inputs": [
        {
          "internalType": "uint256",
          "name": "",
          "type": "uint256"
        }
      ],
      "name": "proposals",
      "outputs": [
        {
          "internalType": "bytes32",
          "name": "name",
          "type": "bytes32"
        },
        {
          "internalType": "uint256",
          "name": "voteCount",
          "type": "uint256"
        }
      ],
      "stateMutability": "view",
      "type": "function"
    },
    {
      "inputs": [],
      "name": "targetBlockNumber",
      "outputs": [
        {
          "internalType": "uint256",
          "name": "",
          "type": "uint256"
        }
      ],
      "stateMutability": "view",
      "type": "function"
    },
    {
      "inputs": [],
      "name": "tokenContract",
      "outputs": [
        {
          "internalType": "contract IMyERC20Votes",
          "name": "",
          "type": "address"
        }
      ],
      "stateMutability": "view",
      "type": "function"
    },
    {
      "inputs": [
        {
          "internalType": "uint256",
          "name": "proposal",
          "type": "uint256"
        },
        {
          "internalType": "uint256",
          "name": "amount",
          "type": "uint256"
        }
      ],
      "name": "vote",
      "outputs": [],
      "stateMutability": "nonpayable",
      "type": "function"
    },
    {
      "inputs": [
        {
          "internalType": "address",
          "name": "account",
          "type": "address"
        }
      ],
      "name": "votingPower",
      "outputs": [
        {
          "internalType": "uint256",
          "name": "",
          "type": "uint256"
        }
      ],
      "stateMutability": "view",
      "type": "function"
    },
    {
      "inputs": [
        {
          "internalType": "address",
          "name": "",
          "type": "address"
        }
      ],
      "name": "votingPowerSpent",
      "outputs": [
        {
          "internalType": "uint256",
          "name": "",
          "type": "uint256"
        }
      ],
      "stateMutability": "view",
      "type": "function"
    },
    {
      "inputs": [],
      "name": "winnerName",
      "outputs": [
        {
          "internalType": "bytes32",
          "name": "winnerName_",
          "type": "bytes32"
        }
      ],
      "stateMutability": "view",
      "type": "function"
    },
    {
      "inputs": [],
      "name": "winningProposal",
      "outputs": [
        {
          "internalType": "uint256",
          "name": "winningProposal_",
          "type": "uint256"
        }
      ],
      "stateMutability": "view",
      "type": "function"
    }
  ],
  "bytecode": "0x60a06040523480156200001157600080fd5b5060405162000d9b38038062000d9b833981810160405281019062000037919062000377565b8173ffffffffffffffffffffffffffffffffffffffff1660808173ffffffffffffffffffffffffffffffffffffffff16815250508060008190555060005b8351811015620001095760016040518060400160405280868481518110620000a257620000a1620003f2565b5b6020026020010151815260200160008152509080600181540180825580915050600190039060005260206000209060020201600090919091909150600082015181600001556020820151816001015550508080620001009062000450565b91505062000075565b505050506200049d565b6000604051905090565b600080fd5b600080fd5b600080fd5b6000601f19601f8301169050919050565b7f4e487b7100000000000000000000000000000000000000000000000000000000600052604160045260246000fd5b62000177826200012c565b810181811067ffffffffffffffff821117156200019957620001986200013d565b5b80604052505050565b6000620001ae62000113565b9050620001bc82826200016c565b919050565b600067ffffffffffffffff821115620001df57620001de6200013d565b5b602082029050602081019050919050565b600080fd5b6000819050919050565b6200020a81620001f5565b81146200021657600080fd5b50565b6000815190506200022a81620001ff565b92915050565b6000620002476200024184620001c1565b620001a2565b905080838252602082019050602084028301858111156200026d576200026c620001f0565b5b835b818110156200029a578062000285888262000219565b8452602084019350506020810190506200026f565b5050509392505050565b600082601f830112620002bc57620002bb62000127565b5b8151620002ce84826020860162000230565b91505092915050565b600073ffffffffffffffffffffffffffffffffffffffff82169050919050565b60006200030482620002d7565b9050919050565b6200031681620002f7565b81146200032257600080fd5b50565b60008151905062000336816200030b565b92915050565b6000819050919050565b62000351816200033c565b81146200035d57600080fd5b50565b600081519050620003718162000346565b92915050565b6000806000606084860312156200039357620003926200011d565b5b600084015167ffffffffffffffff811115620003b457620003b362000122565b5b620003c286828701620002a4565b9350506020620003d58682870162000325565b9250506040620003e88682870162000360565b9150509250925092565b7f4e487b7100000000000000000000000000000000000000000000000000000000600052603260045260246000fd5b7f4e487b7100000000000000000000000000000000000000000000000000000000600052601160045260246000fd5b60006200045d826200033c565b91507fffffffffffffffffffffffffffffffffffffffffffffffffffffffffffffffff820362000492576200049162000421565b5b600182019050919050565b6080516108db620004c0600039600081816101ee01526103df01526108db6000f3fe608060405234801561001057600080fd5b50600436106100885760003560e01c8063a72003511161005b578063a720035114610118578063b384abef14610148578063c07473f614610164578063e2ba53f01461019457610088565b8063013cf08b1461008d5780632a8cd29e146100be57806355a373d6146100dc578063609ff1bd146100fa575b600080fd5b6100a760048036038101906100a291906104fb565b6101b2565b6040516100b5929190610550565b60405180910390f35b6100c66101e6565b6040516100d39190610579565b60405180910390f35b6100e46101ec565b6040516100f19190610613565b60405180910390f35b610102610210565b60405161010f9190610579565b60405180910390f35b610132600480360381019061012d919061066c565b610298565b60405161013f9190610579565b60405180910390f35b610162600480360381019061015d9190610699565b6102b0565b005b61017e6004803603810190610179919061066c565b61039b565b60405161018b9190610579565b60405180910390f35b61019c61048c565b6040516101a991906106d9565b60405180910390f35b600181815481106101c257600080fd5b90600052602060002090600202016000915090508060000154908060010154905082565b60005481565b7f000000000000000000000000000000000000000000000000000000000000000081565b6000806000905060005b60018054905081101561029357816001828154811061023c5761023b6106f4565b5b90600052602060002090600202016001015411156102805760018181548110610268576102676106f4565b5b90600052602060002090600202016001015491508092505b808061028b90610752565b91505061021a565b505090565b60026020528060005260406000206000915090505481565b60006102bb3361039b565b9050818110156103045781816040517f29eed8ef0000000000000000000000000000000000000000000000000000000081526004016102fb92919061079a565b60405180910390fd5b81600260003373ffffffffffffffffffffffffffffffffffffffff1673ffffffffffffffffffffffffffffffffffffffff168152602001908152602001600020600082825461035391906107c3565b92505081905550816001848154811061036f5761036e6106f4565b5b9060005260206000209060020201600101600082825461038f91906107c3565b92505081905550505050565b6000600260008373ffffffffffffffffffffffffffffffffffffffff1673ffffffffffffffffffffffffffffffffffffffff168152602001908152602001600020547f000000000000000000000000000000000000000000000000000000000000000073ffffffffffffffffffffffffffffffffffffffff16633a46b1a8846000546040518363ffffffff1660e01b815260040161043a929190610806565b602060405180830381865afa158015610457573d6000803e3d6000fd5b505050506040513d601f19601f8201168201806040525081019061047b9190610844565b6104859190610871565b9050919050565b60006001610498610210565b815481106104a9576104a86106f4565b5b906000526020600020906002020160000154905090565b600080fd5b6000819050919050565b6104d8816104c5565b81146104e357600080fd5b50565b6000813590506104f5816104cf565b92915050565b600060208284031215610511576105106104c0565b5b600061051f848285016104e6565b91505092915050565b6000819050919050565b61053b81610528565b82525050565b61054a816104c5565b82525050565b60006040820190506105656000830185610532565b6105726020830184610541565b9392505050565b600060208201905061058e6000830184610541565b92915050565b600073ffffffffffffffffffffffffffffffffffffffff82169050919050565b6000819050919050565b60006105d96105d46105cf84610594565b6105b4565b610594565b9050919050565b60006105eb826105be565b9050919050565b60006105fd826105e0565b9050919050565b61060d816105f2565b82525050565b60006020820190506106286000830184610604565b92915050565b600061063982610594565b9050919050565b6106498161062e565b811461065457600080fd5b50565b60008135905061066681610640565b92915050565b600060208284031215610682576106816104c0565b5b600061069084828501610657565b91505092915050565b600080604083850312156106b0576106af6104c0565b5b60006106be858286016104e6565b92505060206106cf858286016104e6565b9150509250929050565b60006020820190506106ee6000830184610532565b92915050565b7f4e487b7100000000000000000000000000000000000000000000000000000000600052603260045260246000fd5b7f4e487b7100000000000000000000000000000000000000000000000000000000600052601160045260246000fd5b600061075d826104c5565b91507fffffffffffffffffffffffffffffffffffffffffffffffffffffffffffffffff820361078f5761078e610723565b5b600182019050919050565b60006040820190506107af6000830185610541565b6107bc6020830184610541565b9392505050565b60006107ce826104c5565b91506107d9836104c5565b92508282019050808211156107f1576107f0610723565b5b92915050565b6108008161062e565b82525050565b600060408201905061081b60008301856107f7565b6108286020830184610541565b9392505050565b60008151905061083e816104cf565b92915050565b60006020828403121561085a576108596104c0565b5b60006108688482850161082f565b91505092915050565b600061087c826104c5565b9150610887836104c5565b925082820390508181111561089f5761089e610723565b5b9291505056fea2646970667358221220fc647e958e98dcad820bdf5ca4dd11cfa01f08c2cfaa8aaf41aa205e3716797a64736f6c63430008110033",
  "linkReferences": {},
  "deployedLinkReferences": {}
}